{
	"Arithmatic/contracts/test.sol": {
		"Test": {
			"abi": [
				{
					"inputs": [],
					"stateMutability": "nonpayable",
					"type": "constructor"
				},
				{
					"inputs": [
						{
							"internalType": "uint256",
							"name": "num1",
							"type": "uint256"
						},
						{
							"internalType": "uint256",
							"name": "num2",
							"type": "uint256"
						}
					],
					"name": "division",
					"outputs": [
						{
							"internalType": "uint256",
							"name": "",
							"type": "uint256"
						}
					],
					"stateMutability": "pure",
					"type": "function"
				},
				{
					"inputs": [
						{
							"internalType": "uint256",
							"name": "num1",
							"type": "uint256"
						},
						{
							"internalType": "uint256",
							"name": "num2",
							"type": "uint256"
						}
					],
					"name": "multiplication",
					"outputs": [
						{
							"internalType": "uint256",
							"name": "",
							"type": "uint256"
						}
					],
					"stateMutability": "pure",
					"type": "function"
				},
				{
					"inputs": [
						{
							"internalType": "uint256",
							"name": "num1",
							"type": "uint256"
						},
						{
							"internalType": "uint256",
							"name": "num2",
							"type": "uint256"
						}
					],
					"name": "substraction",
					"outputs": [
						{
							"internalType": "uint256",
							"name": "",
							"type": "uint256"
						}
					],
					"stateMutability": "pure",
					"type": "function"
				},
				{
					"inputs": [
						{
							"internalType": "uint256",
							"name": "num1",
							"type": "uint256"
						},
						{
							"internalType": "uint256",
							"name": "num2",
							"type": "uint256"
						}
					],
					"name": "sum",
					"outputs": [
						{
							"internalType": "uint256",
							"name": "",
							"type": "uint256"
						}
					],
					"stateMutability": "pure",
					"type": "function"
				}
			],
			"devdoc": {
				"kind": "dev",
				"methods": {},
				"version": 1
			},
			"evm": {
				"assembly": "    /* \"Arithmatic/contracts/test.sol\":62:660  contract Test{... */\n  mstore(0x40, 0x80)\n    /* \"Arithmatic/contracts/test.sol\":84:99  constructor(){} */\n  callvalue\n  dup1\n  iszero\n  tag_1\n  jumpi\n  0x00\n  dup1\n  revert\ntag_1:\n  pop\n    /* \"Arithmatic/contracts/test.sol\":62:660  contract Test{... */\n  dataSize(sub_0)\n  dup1\n  dataOffset(sub_0)\n  0x00\n  codecopy\n  0x00\n  return\nstop\n\nsub_0: assembly {\n        /* \"Arithmatic/contracts/test.sol\":62:660  contract Test{... */\n      mstore(0x40, 0x80)\n      callvalue\n      dup1\n      iszero\n      tag_1\n      jumpi\n      0x00\n      dup1\n      revert\n    tag_1:\n      pop\n      jumpi(tag_2, lt(calldatasize, 0x04))\n      shr(0xe0, calldataload(0x00))\n      dup1\n      0xbbe562b0\n      eq\n      tag_3\n      jumpi\n      dup1\n      0xcad0899b\n      eq\n      tag_4\n      jumpi\n      dup1\n      0xcdeb3314\n      eq\n      tag_5\n      jumpi\n      dup1\n      0xe0068052\n      eq\n      tag_6\n      jumpi\n    tag_2:\n      0x00\n      dup1\n      revert\n        /* \"Arithmatic/contracts/test.sol\":364:483  function multiplication (uint256 num1, uint256 num2) public pure returns ( uint256){... */\n    tag_3:\n      tag_7\n      0x04\n      dup1\n      calldatasize\n      sub\n      dup2\n      add\n      swap1\n      tag_8\n      swap2\n      swap1\n      tag_9\n      jump\t// in\n    tag_8:\n      tag_10\n      jump\t// in\n    tag_7:\n      mload(0x40)\n      tag_11\n      swap2\n      swap1\n      tag_12\n      jump\t// in\n    tag_11:\n      mload(0x40)\n      dup1\n      swap2\n      sub\n      swap1\n      return\n        /* \"Arithmatic/contracts/test.sol\":125:231  function sum(uint256 num1, uint256 num2)public pure returns (uint256){... */\n    tag_4:\n      tag_13\n      0x04\n      dup1\n      calldatasize\n      sub\n      dup2\n      add\n      swap1\n      tag_14\n      swap2\n      swap1\n      tag_9\n      jump\t// in\n    tag_14:\n      tag_15\n      jump\t// in\n    tag_13:\n      mload(0x40)\n      tag_16\n      swap2\n      swap1\n      tag_12\n      jump\t// in\n    tag_16:\n      mload(0x40)\n      dup1\n      swap2\n      sub\n      swap1\n      return\n        /* \"Arithmatic/contracts/test.sol\":237:358  function substraction(uint256 num1, uint256 num2) public pure returns(uint256){... */\n    tag_5:\n      tag_17\n      0x04\n      dup1\n      calldatasize\n      sub\n      dup2\n      add\n      swap1\n      tag_18\n      swap2\n      swap1\n      tag_9\n      jump\t// in\n    tag_18:\n      tag_19\n      jump\t// in\n    tag_17:\n      mload(0x40)\n      tag_20\n      swap2\n      swap1\n      tag_12\n      jump\t// in\n    tag_20:\n      mload(0x40)\n      dup1\n      swap2\n      sub\n      swap1\n      return\n        /* \"Arithmatic/contracts/test.sol\":489:657  function division (uint256 num1, uint256 num2) public pure returns (uint256){... */\n    tag_6:\n      tag_21\n      0x04\n      dup1\n      calldatasize\n      sub\n      dup2\n      add\n      swap1\n      tag_22\n      swap2\n      swap1\n      tag_9\n      jump\t// in\n    tag_22:\n      tag_23\n      jump\t// in\n    tag_21:\n      mload(0x40)\n      tag_24\n      swap2\n      swap1\n      tag_12\n      jump\t// in\n    tag_24:\n      mload(0x40)\n      dup1\n      swap2\n      sub\n      swap1\n      return\n        /* \"Arithmatic/contracts/test.sol\":364:483  function multiplication (uint256 num1, uint256 num2) public pure returns ( uint256){... */\n    tag_10:\n        /* \"Arithmatic/contracts/test.sol\":439:446  uint256 */\n      0x00\n        /* \"Arithmatic/contracts/test.sol\":471:475  num2 */\n      dup2\n        /* \"Arithmatic/contracts/test.sol\":465:469  num1 */\n      dup4\n        /* \"Arithmatic/contracts/test.sol\":465:475  num1* num2 */\n      tag_26\n      swap2\n      swap1\n      tag_27\n      jump\t// in\n    tag_26:\n        /* \"Arithmatic/contracts/test.sol\":458:475  return num1* num2 */\n      swap1\n      pop\n        /* \"Arithmatic/contracts/test.sol\":364:483  function multiplication (uint256 num1, uint256 num2) public pure returns ( uint256){... */\n      swap3\n      swap2\n      pop\n      pop\n      jump\t// out\n        /* \"Arithmatic/contracts/test.sol\":125:231  function sum(uint256 num1, uint256 num2)public pure returns (uint256){... */\n    tag_15:\n        /* \"Arithmatic/contracts/test.sol\":186:193  uint256 */\n      0x00\n        /* \"Arithmatic/contracts/test.sol\":219:223  num2 */\n      dup2\n        /* \"Arithmatic/contracts/test.sol\":212:216  num1 */\n      dup4\n        /* \"Arithmatic/contracts/test.sol\":212:223  num1 + num2 */\n      tag_29\n      swap2\n      swap1\n      tag_30\n      jump\t// in\n    tag_29:\n        /* \"Arithmatic/contracts/test.sol\":205:223  return num1 + num2 */\n      swap1\n      pop\n        /* \"Arithmatic/contracts/test.sol\":125:231  function sum(uint256 num1, uint256 num2)public pure returns (uint256){... */\n      swap3\n      swap2\n      pop\n      pop\n      jump\t// out\n        /* \"Arithmatic/contracts/test.sol\":237:358  function substraction(uint256 num1, uint256 num2) public pure returns(uint256){... */\n    tag_19:\n        /* \"Arithmatic/contracts/test.sol\":307:314  uint256 */\n      0x00\n        /* \"Arithmatic/contracts/test.sol\":344:348  num2 */\n      dup2\n        /* \"Arithmatic/contracts/test.sol\":337:341  num1 */\n      dup4\n        /* \"Arithmatic/contracts/test.sol\":337:348  num1 - num2 */\n      tag_32\n      swap2\n      swap1\n      tag_33\n      jump\t// in\n    tag_32:\n        /* \"Arithmatic/contracts/test.sol\":330:348  return num1 - num2 */\n      swap1\n      pop\n        /* \"Arithmatic/contracts/test.sol\":237:358  function substraction(uint256 num1, uint256 num2) public pure returns(uint256){... */\n      swap3\n      swap2\n      pop\n      pop\n      jump\t// out\n        /* \"Arithmatic/contracts/test.sol\":489:657  function division (uint256 num1, uint256 num2) public pure returns (uint256){... */\n    tag_23:\n        /* \"Arithmatic/contracts/test.sol\":557:564  uint256 */\n      0x00\n        /* \"Arithmatic/contracts/test.sol\":593:594  0 */\n      dup1\n        /* \"Arithmatic/contracts/test.sol\":586:590  num2 */\n      dup3\n        /* \"Arithmatic/contracts/test.sol\":586:594  num2 > 0 */\n      gt\n        /* \"Arithmatic/contracts/test.sol\":578:620  require(num2 > 0, \"Cannot divide by zero\") */\n      tag_35\n      jumpi\n      mload(0x40)\n      0x08c379a000000000000000000000000000000000000000000000000000000000\n      dup2\n      mstore\n      0x04\n      add\n      tag_36\n      swap1\n      tag_37\n      jump\t// in\n    tag_36:\n      mload(0x40)\n      dup1\n      swap2\n      sub\n      swap1\n      revert\n    tag_35:\n        /* \"Arithmatic/contracts/test.sol\":645:649  num2 */\n      dup2\n        /* \"Arithmatic/contracts/test.sol\":640:644  num1 */\n      dup4\n        /* \"Arithmatic/contracts/test.sol\":640:649  num1/num2 */\n      tag_38\n      swap2\n      swap1\n      tag_39\n      jump\t// in\n    tag_38:\n        /* \"Arithmatic/contracts/test.sol\":633:649  return num1/num2 */\n      swap1\n      pop\n        /* \"Arithmatic/contracts/test.sol\":489:657  function division (uint256 num1, uint256 num2) public pure returns (uint256){... */\n      swap3\n      swap2\n      pop\n      pop\n      jump\t// out\n        /* \"#utility.yul\":88:205   */\n    tag_41:\n        /* \"#utility.yul\":197:198   */\n      0x00\n        /* \"#utility.yul\":194:195   */\n      dup1\n        /* \"#utility.yul\":187:199   */\n      revert\n        /* \"#utility.yul\":334:411   */\n    tag_43:\n        /* \"#utility.yul\":371:378   */\n      0x00\n        /* \"#utility.yul\":400:405   */\n      dup2\n        /* \"#utility.yul\":389:405   */\n      swap1\n      pop\n        /* \"#utility.yul\":334:411   */\n      swap2\n      swap1\n      pop\n      jump\t// out\n        /* \"#utility.yul\":417:539   */\n    tag_44:\n        /* \"#utility.yul\":490:514   */\n      tag_58\n        /* \"#utility.yul\":508:513   */\n      dup2\n        /* \"#utility.yul\":490:514   */\n      tag_43\n      jump\t// in\n    tag_58:\n        /* \"#utility.yul\":483:488   */\n      dup2\n        /* \"#utility.yul\":480:515   */\n      eq\n        /* \"#utility.yul\":470:533   */\n      tag_59\n      jumpi\n        /* \"#utility.yul\":529:530   */\n      0x00\n        /* \"#utility.yul\":526:527   */\n      dup1\n        /* \"#utility.yul\":519:531   */\n      revert\n        /* \"#utility.yul\":470:533   */\n    tag_59:\n        /* \"#utility.yul\":417:539   */\n      pop\n      jump\t// out\n        /* \"#utility.yul\":545:684   */\n    tag_45:\n        /* \"#utility.yul\":591:596   */\n      0x00\n        /* \"#utility.yul\":629:635   */\n      dup2\n        /* \"#utility.yul\":616:636   */\n      calldataload\n        /* \"#utility.yul\":607:636   */\n      swap1\n      pop\n        /* \"#utility.yul\":645:678   */\n      tag_61\n        /* \"#utility.yul\":672:677   */\n      dup2\n        /* \"#utility.yul\":645:678   */\n      tag_44\n      jump\t// in\n    tag_61:\n        /* \"#utility.yul\":545:684   */\n      swap3\n      swap2\n      pop\n      pop\n      jump\t// out\n        /* \"#utility.yul\":690:1164   */\n    tag_9:\n        /* \"#utility.yul\":758:764   */\n      0x00\n        /* \"#utility.yul\":766:772   */\n      dup1\n        /* \"#utility.yul\":815:817   */\n      0x40\n        /* \"#utility.yul\":803:812   */\n      dup4\n        /* \"#utility.yul\":794:801   */\n      dup6\n        /* \"#utility.yul\":790:813   */\n      sub\n        /* \"#utility.yul\":786:818   */\n      slt\n        /* \"#utility.yul\":783:902   */\n      iszero\n      tag_63\n      jumpi\n        /* \"#utility.yul\":821:900   */\n      tag_64\n      tag_41\n      jump\t// in\n    tag_64:\n        /* \"#utility.yul\":783:902   */\n    tag_63:\n        /* \"#utility.yul\":941:942   */\n      0x00\n        /* \"#utility.yul\":966:1019   */\n      tag_65\n        /* \"#utility.yul\":1011:1018   */\n      dup6\n        /* \"#utility.yul\":1002:1008   */\n      dup3\n        /* \"#utility.yul\":991:1000   */\n      dup7\n        /* \"#utility.yul\":987:1009   */\n      add\n        /* \"#utility.yul\":966:1019   */\n      tag_45\n      jump\t// in\n    tag_65:\n        /* \"#utility.yul\":956:1019   */\n      swap3\n      pop\n        /* \"#utility.yul\":912:1029   */\n      pop\n        /* \"#utility.yul\":1068:1070   */\n      0x20\n        /* \"#utility.yul\":1094:1147   */\n      tag_66\n        /* \"#utility.yul\":1139:1146   */\n      dup6\n        /* \"#utility.yul\":1130:1136   */\n      dup3\n        /* \"#utility.yul\":1119:1128   */\n      dup7\n        /* \"#utility.yul\":1115:1137   */\n      add\n        /* \"#utility.yul\":1094:1147   */\n      tag_45\n      jump\t// in\n    tag_66:\n        /* \"#utility.yul\":1084:1147   */\n      swap2\n      pop\n        /* \"#utility.yul\":1039:1157   */\n      pop\n        /* \"#utility.yul\":690:1164   */\n      swap3\n      pop\n      swap3\n      swap1\n      pop\n      jump\t// out\n        /* \"#utility.yul\":1170:1288   */\n    tag_46:\n        /* \"#utility.yul\":1257:1281   */\n      tag_68\n        /* \"#utility.yul\":1275:1280   */\n      dup2\n        /* \"#utility.yul\":1257:1281   */\n      tag_43\n      jump\t// in\n    tag_68:\n        /* \"#utility.yul\":1252:1255   */\n      dup3\n        /* \"#utility.yul\":1245:1282   */\n      mstore\n        /* \"#utility.yul\":1170:1288   */\n      pop\n      pop\n      jump\t// out\n        /* \"#utility.yul\":1294:1516   */\n    tag_12:\n        /* \"#utility.yul\":1387:1391   */\n      0x00\n        /* \"#utility.yul\":1425:1427   */\n      0x20\n        /* \"#utility.yul\":1414:1423   */\n      dup3\n        /* \"#utility.yul\":1410:1428   */\n      add\n        /* \"#utility.yul\":1402:1428   */\n      swap1\n      pop\n        /* \"#utility.yul\":1438:1509   */\n      tag_70\n        /* \"#utility.yul\":1506:1507   */\n      0x00\n        /* \"#utility.yul\":1495:1504   */\n      dup4\n        /* \"#utility.yul\":1491:1508   */\n      add\n        /* \"#utility.yul\":1482:1488   */\n      dup5\n        /* \"#utility.yul\":1438:1509   */\n      tag_46\n      jump\t// in\n    tag_70:\n        /* \"#utility.yul\":1294:1516   */\n      swap3\n      swap2\n      pop\n      pop\n      jump\t// out\n        /* \"#utility.yul\":1522:1702   */\n    tag_47:\n        /* \"#utility.yul\":1570:1647   */\n      0x4e487b7100000000000000000000000000000000000000000000000000000000\n        /* \"#utility.yul\":1567:1568   */\n      0x00\n        /* \"#utility.yul\":1560:1648   */\n      mstore\n        /* \"#utility.yul\":1667:1671   */\n      0x11\n        /* \"#utility.yul\":1664:1665   */\n      0x04\n        /* \"#utility.yul\":1657:1672   */\n      mstore\n        /* \"#utility.yul\":1691:1695   */\n      0x24\n        /* \"#utility.yul\":1688:1689   */\n      0x00\n        /* \"#utility.yul\":1681:1696   */\n      revert\n        /* \"#utility.yul\":1708:2118   */\n    tag_27:\n        /* \"#utility.yul\":1748:1755   */\n      0x00\n        /* \"#utility.yul\":1771:1791   */\n      tag_73\n        /* \"#utility.yul\":1789:1790   */\n      dup3\n        /* \"#utility.yul\":1771:1791   */\n      tag_43\n      jump\t// in\n    tag_73:\n        /* \"#utility.yul\":1766:1791   */\n      swap2\n      pop\n        /* \"#utility.yul\":1805:1825   */\n      tag_74\n        /* \"#utility.yul\":1823:1824   */\n      dup4\n        /* \"#utility.yul\":1805:1825   */\n      tag_43\n      jump\t// in\n    tag_74:\n        /* \"#utility.yul\":1800:1825   */\n      swap3\n      pop\n        /* \"#utility.yul\":1860:1861   */\n      dup3\n        /* \"#utility.yul\":1857:1858   */\n      dup3\n        /* \"#utility.yul\":1853:1862   */\n      mul\n        /* \"#utility.yul\":1882:1912   */\n      tag_75\n        /* \"#utility.yul\":1900:1911   */\n      dup2\n        /* \"#utility.yul\":1882:1912   */\n      tag_43\n      jump\t// in\n    tag_75:\n        /* \"#utility.yul\":1871:1912   */\n      swap2\n      pop\n        /* \"#utility.yul\":2061:2062   */\n      dup3\n        /* \"#utility.yul\":2052:2059   */\n      dup3\n        /* \"#utility.yul\":2048:2063   */\n      div\n        /* \"#utility.yul\":2045:2046   */\n      dup5\n        /* \"#utility.yul\":2042:2064   */\n      eq\n        /* \"#utility.yul\":2022:2023   */\n      dup4\n        /* \"#utility.yul\":2015:2024   */\n      iszero\n        /* \"#utility.yul\":1995:2078   */\n      or\n        /* \"#utility.yul\":1972:2111   */\n      tag_76\n      jumpi\n        /* \"#utility.yul\":2091:2109   */\n      tag_77\n      tag_47\n      jump\t// in\n    tag_77:\n        /* \"#utility.yul\":1972:2111   */\n    tag_76:\n        /* \"#utility.yul\":1756:2118   */\n      pop\n        /* \"#utility.yul\":1708:2118   */\n      swap3\n      swap2\n      pop\n      pop\n      jump\t// out\n        /* \"#utility.yul\":2124:2315   */\n    tag_30:\n        /* \"#utility.yul\":2164:2167   */\n      0x00\n        /* \"#utility.yul\":2183:2203   */\n      tag_79\n        /* \"#utility.yul\":2201:2202   */\n      dup3\n        /* \"#utility.yul\":2183:2203   */\n      tag_43\n      jump\t// in\n    tag_79:\n        /* \"#utility.yul\":2178:2203   */\n      swap2\n      pop\n        /* \"#utility.yul\":2217:2237   */\n      tag_80\n        /* \"#utility.yul\":2235:2236   */\n      dup4\n        /* \"#utility.yul\":2217:2237   */\n      tag_43\n      jump\t// in\n    tag_80:\n        /* \"#utility.yul\":2212:2237   */\n      swap3\n      pop\n        /* \"#utility.yul\":2260:2261   */\n      dup3\n        /* \"#utility.yul\":2257:2258   */\n      dup3\n        /* \"#utility.yul\":2253:2262   */\n      add\n        /* \"#utility.yul\":2246:2262   */\n      swap1\n      pop\n        /* \"#utility.yul\":2281:2284   */\n      dup1\n        /* \"#utility.yul\":2278:2279   */\n      dup3\n        /* \"#utility.yul\":2275:2285   */\n      gt\n        /* \"#utility.yul\":2272:2308   */\n      iszero\n      tag_81\n      jumpi\n        /* \"#utility.yul\":2288:2306   */\n      tag_82\n      tag_47\n      jump\t// in\n    tag_82:\n        /* \"#utility.yul\":2272:2308   */\n    tag_81:\n        /* \"#utility.yul\":2124:2315   */\n      swap3\n      swap2\n      pop\n      pop\n      jump\t// out\n        /* \"#utility.yul\":2321:2515   */\n    tag_33:\n        /* \"#utility.yul\":2361:2365   */\n      0x00\n        /* \"#utility.yul\":2381:2401   */\n      tag_84\n        /* \"#utility.yul\":2399:2400   */\n      dup3\n        /* \"#utility.yul\":2381:2401   */\n      tag_43\n      jump\t// in\n    tag_84:\n        /* \"#utility.yul\":2376:2401   */\n      swap2\n      pop\n        /* \"#utility.yul\":2415:2435   */\n      tag_85\n        /* \"#utility.yul\":2433:2434   */\n      dup4\n        /* \"#utility.yul\":2415:2435   */\n      tag_43\n      jump\t// in\n    tag_85:\n        /* \"#utility.yul\":2410:2435   */\n      swap3\n      pop\n        /* \"#utility.yul\":2459:2460   */\n      dup3\n        /* \"#utility.yul\":2456:2457   */\n      dup3\n        /* \"#utility.yul\":2452:2461   */\n      sub\n        /* \"#utility.yul\":2444:2461   */\n      swap1\n      pop\n        /* \"#utility.yul\":2483:2484   */\n      dup2\n        /* \"#utility.yul\":2477:2481   */\n      dup2\n        /* \"#utility.yul\":2474:2485   */\n      gt\n        /* \"#utility.yul\":2471:2508   */\n      iszero\n      tag_86\n      jumpi\n        /* \"#utility.yul\":2488:2506   */\n      tag_87\n      tag_47\n      jump\t// in\n    tag_87:\n        /* \"#utility.yul\":2471:2508   */\n    tag_86:\n        /* \"#utility.yul\":2321:2515   */\n      swap3\n      swap2\n      pop\n      pop\n      jump\t// out\n        /* \"#utility.yul\":2521:2690   */\n    tag_48:\n        /* \"#utility.yul\":2605:2616   */\n      0x00\n        /* \"#utility.yul\":2639:2645   */\n      dup3\n        /* \"#utility.yul\":2634:2637   */\n      dup3\n        /* \"#utility.yul\":2627:2646   */\n      mstore\n        /* \"#utility.yul\":2679:2683   */\n      0x20\n        /* \"#utility.yul\":2674:2677   */\n      dup3\n        /* \"#utility.yul\":2670:2684   */\n      add\n        /* \"#utility.yul\":2655:2684   */\n      swap1\n      pop\n        /* \"#utility.yul\":2521:2690   */\n      swap3\n      swap2\n      pop\n      pop\n      jump\t// out\n        /* \"#utility.yul\":2696:2867   */\n    tag_49:\n        /* \"#utility.yul\":2836:2859   */\n      0x43616e6e6f7420646976696465206279207a65726f0000000000000000000000\n        /* \"#utility.yul\":2832:2833   */\n      0x00\n        /* \"#utility.yul\":2824:2830   */\n      dup3\n        /* \"#utility.yul\":2820:2834   */\n      add\n        /* \"#utility.yul\":2813:2860   */\n      mstore\n        /* \"#utility.yul\":2696:2867   */\n      pop\n      jump\t// out\n        /* \"#utility.yul\":2873:3239   */\n    tag_50:\n        /* \"#utility.yul\":3015:3018   */\n      0x00\n        /* \"#utility.yul\":3036:3103   */\n      tag_91\n        /* \"#utility.yul\":3100:3102   */\n      0x15\n        /* \"#utility.yul\":3095:3098   */\n      dup4\n        /* \"#utility.yul\":3036:3103   */\n      tag_48\n      jump\t// in\n    tag_91:\n        /* \"#utility.yul\":3029:3103   */\n      swap2\n      pop\n        /* \"#utility.yul\":3112:3205   */\n      tag_92\n        /* \"#utility.yul\":3201:3204   */\n      dup3\n        /* \"#utility.yul\":3112:3205   */\n      tag_49\n      jump\t// in\n    tag_92:\n        /* \"#utility.yul\":3230:3232   */\n      0x20\n        /* \"#utility.yul\":3225:3228   */\n      dup3\n        /* \"#utility.yul\":3221:3233   */\n      add\n        /* \"#utility.yul\":3214:3233   */\n      swap1\n      pop\n        /* \"#utility.yul\":2873:3239   */\n      swap2\n      swap1\n      pop\n      jump\t// out\n        /* \"#utility.yul\":3245:3664   */\n    tag_37:\n        /* \"#utility.yul\":3411:3415   */\n      0x00\n        /* \"#utility.yul\":3449:3451   */\n      0x20\n        /* \"#utility.yul\":3438:3447   */\n      dup3\n        /* \"#utility.yul\":3434:3452   */\n      add\n        /* \"#utility.yul\":3426:3452   */\n      swap1\n      pop\n        /* \"#utility.yul\":3498:3507   */\n      dup2\n        /* \"#utility.yul\":3492:3496   */\n      dup2\n        /* \"#utility.yul\":3488:3508   */\n      sub\n        /* \"#utility.yul\":3484:3485   */\n      0x00\n        /* \"#utility.yul\":3473:3482   */\n      dup4\n        /* \"#utility.yul\":3469:3486   */\n      add\n        /* \"#utility.yul\":3462:3509   */\n      mstore\n        /* \"#utility.yul\":3526:3657   */\n      tag_94\n        /* \"#utility.yul\":3652:3656   */\n      dup2\n        /* \"#utility.yul\":3526:3657   */\n      tag_50\n      jump\t// in\n    tag_94:\n        /* \"#utility.yul\":3518:3657   */\n      swap1\n      pop\n        /* \"#utility.yul\":3245:3664   */\n      swap2\n      swap1\n      pop\n      jump\t// out\n        /* \"#utility.yul\":3670:3850   */\n    tag_51:\n        /* \"#utility.yul\":3718:3795   */\n      0x4e487b7100000000000000000000000000000000000000000000000000000000\n        /* \"#utility.yul\":3715:3716   */\n      0x00\n        /* \"#utility.yul\":3708:3796   */\n      mstore\n        /* \"#utility.yul\":3815:3819   */\n      0x12\n        /* \"#utility.yul\":3812:3813   */\n      0x04\n        /* \"#utility.yul\":3805:3820   */\n      mstore\n        /* \"#utility.yul\":3839:3843   */\n      0x24\n        /* \"#utility.yul\":3836:3837   */\n      0x00\n        /* \"#utility.yul\":3829:3844   */\n      revert\n        /* \"#utility.yul\":3856:4041   */\n    tag_39:\n        /* \"#utility.yul\":3896:3897   */\n      0x00\n        /* \"#utility.yul\":3913:3933   */\n      tag_97\n        /* \"#utility.yul\":3931:3932   */\n      dup3\n        /* \"#utility.yul\":3913:3933   */\n      tag_43\n      jump\t// in\n    tag_97:\n        /* \"#utility.yul\":3908:3933   */\n      swap2\n      pop\n        /* \"#utility.yul\":3947:3967   */\n      tag_98\n        /* \"#utility.yul\":3965:3966   */\n      dup4\n        /* \"#utility.yul\":3947:3967   */\n      tag_43\n      jump\t// in\n    tag_98:\n        /* \"#utility.yul\":3942:3967   */\n      swap3\n      pop\n        /* \"#utility.yul\":3986:3987   */\n      dup3\n        /* \"#utility.yul\":3976:4011   */\n      tag_99\n      jumpi\n        /* \"#utility.yul\":3991:4009   */\n      tag_100\n      tag_51\n      jump\t// in\n    tag_100:\n        /* \"#utility.yul\":3976:4011   */\n    tag_99:\n        /* \"#utility.yul\":4033:4034   */\n      dup3\n        /* \"#utility.yul\":4030:4031   */\n      dup3\n        /* \"#utility.yul\":4026:4035   */\n      div\n        /* \"#utility.yul\":4021:4035   */\n      swap1\n      pop\n        /* \"#utility.yul\":3856:4041   */\n      swap3\n      swap2\n      pop\n      pop\n      jump\t// out\n\n    auxdata: 0xa26469706673582212208b1758b2a8917dc6b12426d122d55dadf3008a274643a7db014f4948c8e75a0964736f6c63430008120033\n}\n",
				"bytecode": {
					"linkReferences": {},
					"object": "608060405234801561001057600080fd5b5061043c806100206000396000f3fe608060405234801561001057600080fd5b506004361061004c5760003560e01c8063bbe562b014610051578063cad0899b14610081578063cdeb3314146100b1578063e0068052146100e1575b600080fd5b61006b600480360381019061006691906101e6565b610111565b6040516100789190610235565b60405180910390f35b61009b600480360381019061009691906101e6565b610127565b6040516100a89190610235565b60405180910390f35b6100cb60048036038101906100c691906101e6565b61013d565b6040516100d89190610235565b60405180910390f35b6100fb60048036038101906100f691906101e6565b610153565b6040516101089190610235565b60405180910390f35b6000818361011f919061027f565b905092915050565b6000818361013591906102c1565b905092915050565b6000818361014b91906102f5565b905092915050565b6000808211610197576040517f08c379a000000000000000000000000000000000000000000000000000000000815260040161018e90610386565b60405180910390fd5b81836101a391906103d5565b905092915050565b600080fd5b6000819050919050565b6101c3816101b0565b81146101ce57600080fd5b50565b6000813590506101e0816101ba565b92915050565b600080604083850312156101fd576101fc6101ab565b5b600061020b858286016101d1565b925050602061021c858286016101d1565b9150509250929050565b61022f816101b0565b82525050565b600060208201905061024a6000830184610226565b92915050565b7f4e487b7100000000000000000000000000000000000000000000000000000000600052601160045260246000fd5b600061028a826101b0565b9150610295836101b0565b92508282026102a3816101b0565b915082820484148315176102ba576102b9610250565b5b5092915050565b60006102cc826101b0565b91506102d7836101b0565b92508282019050808211156102ef576102ee610250565b5b92915050565b6000610300826101b0565b915061030b836101b0565b925082820390508181111561032357610322610250565b5b92915050565b600082825260208201905092915050565b7f43616e6e6f7420646976696465206279207a65726f0000000000000000000000600082015250565b6000610370601583610329565b915061037b8261033a565b602082019050919050565b6000602082019050818103600083015261039f81610363565b9050919050565b7f4e487b7100000000000000000000000000000000000000000000000000000000600052601260045260246000fd5b60006103e0826101b0565b91506103eb836101b0565b9250826103fb576103fa6103a6565b5b82820490509291505056fea26469706673582212208b1758b2a8917dc6b12426d122d55dadf3008a274643a7db014f4948c8e75a0964736f6c63430008120033",
					"opcodes": "PUSH1 0x80 PUSH1 0x40 MSTORE CALLVALUE DUP1 ISZERO PUSH2 0x10 JUMPI PUSH1 0x0 DUP1 REVERT JUMPDEST POP PUSH2 0x43C DUP1 PUSH2 0x20 PUSH1 0x0 CODECOPY PUSH1 0x0 RETURN INVALID PUSH1 0x80 PUSH1 0x40 MSTORE CALLVALUE DUP1 ISZERO PUSH2 0x10 JUMPI PUSH1 0x0 DUP1 REVERT JUMPDEST POP PUSH1 0x4 CALLDATASIZE LT PUSH2 0x4C JUMPI PUSH1 0x0 CALLDATALOAD PUSH1 0xE0 SHR DUP1 PUSH4 0xBBE562B0 EQ PUSH2 0x51 JUMPI DUP1 PUSH4 0xCAD0899B EQ PUSH2 0x81 JUMPI DUP1 PUSH4 0xCDEB3314 EQ PUSH2 0xB1 JUMPI DUP1 PUSH4 0xE0068052 EQ PUSH2 0xE1 JUMPI JUMPDEST PUSH1 0x0 DUP1 REVERT JUMPDEST PUSH2 0x6B PUSH1 0x4 DUP1 CALLDATASIZE SUB DUP2 ADD SWAP1 PUSH2 0x66 SWAP2 SWAP1 PUSH2 0x1E6 JUMP JUMPDEST PUSH2 0x111 JUMP JUMPDEST PUSH1 0x40 MLOAD PUSH2 0x78 SWAP2 SWAP1 PUSH2 0x235 JUMP JUMPDEST PUSH1 0x40 MLOAD DUP1 SWAP2 SUB SWAP1 RETURN JUMPDEST PUSH2 0x9B PUSH1 0x4 DUP1 CALLDATASIZE SUB DUP2 ADD SWAP1 PUSH2 0x96 SWAP2 SWAP1 PUSH2 0x1E6 JUMP JUMPDEST PUSH2 0x127 JUMP JUMPDEST PUSH1 0x40 MLOAD PUSH2 0xA8 SWAP2 SWAP1 PUSH2 0x235 JUMP JUMPDEST PUSH1 0x40 MLOAD DUP1 SWAP2 SUB SWAP1 RETURN JUMPDEST PUSH2 0xCB PUSH1 0x4 DUP1 CALLDATASIZE SUB DUP2 ADD SWAP1 PUSH2 0xC6 SWAP2 SWAP1 PUSH2 0x1E6 JUMP JUMPDEST PUSH2 0x13D JUMP JUMPDEST PUSH1 0x40 MLOAD PUSH2 0xD8 SWAP2 SWAP1 PUSH2 0x235 JUMP JUMPDEST PUSH1 0x40 MLOAD DUP1 SWAP2 SUB SWAP1 RETURN JUMPDEST PUSH2 0xFB PUSH1 0x4 DUP1 CALLDATASIZE SUB DUP2 ADD SWAP1 PUSH2 0xF6 SWAP2 SWAP1 PUSH2 0x1E6 JUMP JUMPDEST PUSH2 0x153 JUMP JUMPDEST PUSH1 0x40 MLOAD PUSH2 0x108 SWAP2 SWAP1 PUSH2 0x235 JUMP JUMPDEST PUSH1 0x40 MLOAD DUP1 SWAP2 SUB SWAP1 RETURN JUMPDEST PUSH1 0x0 DUP2 DUP4 PUSH2 0x11F SWAP2 SWAP1 PUSH2 0x27F JUMP JUMPDEST SWAP1 POP SWAP3 SWAP2 POP POP JUMP JUMPDEST PUSH1 0x0 DUP2 DUP4 PUSH2 0x135 SWAP2 SWAP1 PUSH2 0x2C1 JUMP JUMPDEST SWAP1 POP SWAP3 SWAP2 POP POP JUMP JUMPDEST PUSH1 0x0 DUP2 DUP4 PUSH2 0x14B SWAP2 SWAP1 PUSH2 0x2F5 JUMP JUMPDEST SWAP1 POP SWAP3 SWAP2 POP POP JUMP JUMPDEST PUSH1 0x0 DUP1 DUP3 GT PUSH2 0x197 JUMPI PUSH1 0x40 MLOAD PUSH32 0x8C379A000000000000000000000000000000000000000000000000000000000 DUP2 MSTORE PUSH1 0x4 ADD PUSH2 0x18E SWAP1 PUSH2 0x386 JUMP JUMPDEST PUSH1 0x40 MLOAD DUP1 SWAP2 SUB SWAP1 REVERT JUMPDEST DUP2 DUP4 PUSH2 0x1A3 SWAP2 SWAP1 PUSH2 0x3D5 JUMP JUMPDEST SWAP1 POP SWAP3 SWAP2 POP POP JUMP JUMPDEST PUSH1 0x0 DUP1 REVERT JUMPDEST PUSH1 0x0 DUP2 SWAP1 POP SWAP2 SWAP1 POP JUMP JUMPDEST PUSH2 0x1C3 DUP2 PUSH2 0x1B0 JUMP JUMPDEST DUP2 EQ PUSH2 0x1CE JUMPI PUSH1 0x0 DUP1 REVERT JUMPDEST POP JUMP JUMPDEST PUSH1 0x0 DUP2 CALLDATALOAD SWAP1 POP PUSH2 0x1E0 DUP2 PUSH2 0x1BA JUMP JUMPDEST SWAP3 SWAP2 POP POP JUMP JUMPDEST PUSH1 0x0 DUP1 PUSH1 0x40 DUP4 DUP6 SUB SLT ISZERO PUSH2 0x1FD JUMPI PUSH2 0x1FC PUSH2 0x1AB JUMP JUMPDEST JUMPDEST PUSH1 0x0 PUSH2 0x20B DUP6 DUP3 DUP7 ADD PUSH2 0x1D1 JUMP JUMPDEST SWAP3 POP POP PUSH1 0x20 PUSH2 0x21C DUP6 DUP3 DUP7 ADD PUSH2 0x1D1 JUMP JUMPDEST SWAP2 POP POP SWAP3 POP SWAP3 SWAP1 POP JUMP JUMPDEST PUSH2 0x22F DUP2 PUSH2 0x1B0 JUMP JUMPDEST DUP3 MSTORE POP POP JUMP JUMPDEST PUSH1 0x0 PUSH1 0x20 DUP3 ADD SWAP1 POP PUSH2 0x24A PUSH1 0x0 DUP4 ADD DUP5 PUSH2 0x226 JUMP JUMPDEST SWAP3 SWAP2 POP POP JUMP JUMPDEST PUSH32 0x4E487B7100000000000000000000000000000000000000000000000000000000 PUSH1 0x0 MSTORE PUSH1 0x11 PUSH1 0x4 MSTORE PUSH1 0x24 PUSH1 0x0 REVERT JUMPDEST PUSH1 0x0 PUSH2 0x28A DUP3 PUSH2 0x1B0 JUMP JUMPDEST SWAP2 POP PUSH2 0x295 DUP4 PUSH2 0x1B0 JUMP JUMPDEST SWAP3 POP DUP3 DUP3 MUL PUSH2 0x2A3 DUP2 PUSH2 0x1B0 JUMP JUMPDEST SWAP2 POP DUP3 DUP3 DIV DUP5 EQ DUP4 ISZERO OR PUSH2 0x2BA JUMPI PUSH2 0x2B9 PUSH2 0x250 JUMP JUMPDEST JUMPDEST POP SWAP3 SWAP2 POP POP JUMP JUMPDEST PUSH1 0x0 PUSH2 0x2CC DUP3 PUSH2 0x1B0 JUMP JUMPDEST SWAP2 POP PUSH2 0x2D7 DUP4 PUSH2 0x1B0 JUMP JUMPDEST SWAP3 POP DUP3 DUP3 ADD SWAP1 POP DUP1 DUP3 GT ISZERO PUSH2 0x2EF JUMPI PUSH2 0x2EE PUSH2 0x250 JUMP JUMPDEST JUMPDEST SWAP3 SWAP2 POP POP JUMP JUMPDEST PUSH1 0x0 PUSH2 0x300 DUP3 PUSH2 0x1B0 JUMP JUMPDEST SWAP2 POP PUSH2 0x30B DUP4 PUSH2 0x1B0 JUMP JUMPDEST SWAP3 POP DUP3 DUP3 SUB SWAP1 POP DUP2 DUP2 GT ISZERO PUSH2 0x323 JUMPI PUSH2 0x322 PUSH2 0x250 JUMP JUMPDEST JUMPDEST SWAP3 SWAP2 POP POP JUMP JUMPDEST PUSH1 0x0 DUP3 DUP3 MSTORE PUSH1 0x20 DUP3 ADD SWAP1 POP SWAP3 SWAP2 POP POP JUMP JUMPDEST PUSH32 0x43616E6E6F7420646976696465206279207A65726F0000000000000000000000 PUSH1 0x0 DUP3 ADD MSTORE POP JUMP JUMPDEST PUSH1 0x0 PUSH2 0x370 PUSH1 0x15 DUP4 PUSH2 0x329 JUMP JUMPDEST SWAP2 POP PUSH2 0x37B DUP3 PUSH2 0x33A JUMP JUMPDEST PUSH1 0x20 DUP3 ADD SWAP1 POP SWAP2 SWAP1 POP JUMP JUMPDEST PUSH1 0x0 PUSH1 0x20 DUP3 ADD SWAP1 POP DUP2 DUP2 SUB PUSH1 0x0 DUP4 ADD MSTORE PUSH2 0x39F DUP2 PUSH2 0x363 JUMP JUMPDEST SWAP1 POP SWAP2 SWAP1 POP JUMP JUMPDEST PUSH32 0x4E487B7100000000000000000000000000000000000000000000000000000000 PUSH1 0x0 MSTORE PUSH1 0x12 PUSH1 0x4 MSTORE PUSH1 0x24 PUSH1 0x0 REVERT JUMPDEST PUSH1 0x0 PUSH2 0x3E0 DUP3 PUSH2 0x1B0 JUMP JUMPDEST SWAP2 POP PUSH2 0x3EB DUP4 PUSH2 0x1B0 JUMP JUMPDEST SWAP3 POP DUP3 PUSH2 0x3FB JUMPI PUSH2 0x3FA PUSH2 0x3A6 JUMP JUMPDEST JUMPDEST DUP3 DUP3 DIV SWAP1 POP SWAP3 SWAP2 POP POP JUMP INVALID LOG2 PUSH5 0x6970667358 0x22 SLT KECCAK256 DUP12 OR PC 0xB2 0xA8 SWAP2 PUSH30 0xC6B12426D122D55DADF3008A274643A7DB014F4948C8E75A0964736F6C63 NUMBER STOP ADDMOD SLT STOP CALLER "
				},
				"gasEstimates": {
					"creation": {
						"codeDepositCost": "216800",
						"executionCost": "257",
						"totalCost": "217057"
					},
					"external": {
						"division(uint256,uint256)": "infinite",
						"multiplication(uint256,uint256)": "infinite",
						"substraction(uint256,uint256)": "infinite",
						"sum(uint256,uint256)": "infinite"
					}
				},
				"methodIdentifiers": {
					"division(uint256,uint256)": "e0068052",
					"multiplication(uint256,uint256)": "bbe562b0",
					"substraction(uint256,uint256)": "cdeb3314",
					"sum(uint256,uint256)": "cad0899b"
				}
			},
			"storageLayout": {
				"storage": [
					{
						"astId": 7,
						"contract": "Arithmatic/contracts/test.sol:Test",
						"label": "answer",
						"offset": 0,
						"slot": "0",
						"type": "t_uint256"
					}
				],
				"types": {
					"t_uint256": {
						"encoding": "inplace",
						"label": "uint256",
						"numberOfBytes": "32"
					}
				}
			},
			"userdoc": {
				"kind": "user",
				"methods": {},
				"version": 1
			}
		}
	}
}